:020000040800F2
:10000000C0080020D50000089F3700081134000800
:1000100000000000000000000000000000000000E0
:100020000000000000000000000000000B38000885
:100030000000000000000000093800080D3800082A
:10004000E7000008E7000008E7000008E7000008F4
:10005000E7000008E7000008E7000008ED100008CE
:10006000E7000008E7000008E7000008E7000008D4
:10007000E7000008E700000835380008E70000083E
:10008000E70000084538000861380008E70000086C
:10009000E700000819380008E7000008E70000083A
:1000A000E7000008E7000008E7000008B53D000889
:1000B000E7000008CD3D0008E7000008E700000861
:1000C0000348854600F050FB004800473D400008CB
:1000D000C00800200448804704480047FEE7FEE7C8
:1000E000FEE7FEE7FEE7FEE715380008C10000085E
:1000F00010B5202A04DB0846203AD040002110BD6C
:100100000B46D340D0402024A21A91400843194600
:1001100010BDD2B201E00270401C491EFBD27047F4
:100120000022F6E710B513460A4604461946FFF7C3
:10013000F0FF204610BD0000F0B51FB488B00B9949
:100140000998002448400999C00F490049080991BD
:10015000C0070B990090490049080B91099908982C
:10016000A64608431CD00B990A98084318D0099852
:1001700001244000420D4800410D09982405000368
:10018000000B204309900B980003000B20430B90B9
:1001900050181C494018002201901446104605E0F2
:1001A000002001460DB0F0BD032801DA034600E04F
:1001B00003239C46C11A0AAE0AE05F0008ADED5B5E
:1001C0004F00F75B7D430027AA187C41491C5B1E4A
:1001D0006145F2DD410004AB5A522104120C0A437E
:1001E000240C401C0828DFDB01980290009970461F
:1001F00001910090059B049A0799069800F07BF9FD
:10020000D0E700000DFCFFFFF0B50C465C4085B068
:10021000E40FE40703944C00002664085900944658
:10022000490802460296224321D062460A431ED064
:100230006200570D4A000E032303550D01240246A8
:100240002C492405781B1B0B360B401823432643EF
:10025000614600901C46501AB44103D30098401CDC
:10026000009002E0921800985B41002803DA002019
:10027000014605B0F0BD002001210905074686466C
:1002800011E064461D46141BB54106D36546521B5A
:10029000B341744607430C43A646CD0740084908BE
:1002A000284392185B4105460D43EAD11046184396
:1002B00013D06046194650407140084306D060464E
:1002C000101AB34106D20122002306E000220123C6
:1002D000DB0702E00122D243531000987446010567
:1002E000381C6141029C039D0019694100F0F6F839
:1002F000BFE70000FD0300000EB505490291002193
:1003000000910A460B46019100F0F5F803B000BDDC
:100310003304000070B5CD0F4A0009030123090B17
:100320001B0519430B4BED070024520D9A4201DACD
:10033000002070BD074B34339A4203DC9A1AFFF752
:10034000D7FE02E00449511888402C43F1D04042C6
:1003500070BD0000FF030000CDFBFFFFC20FD207FE
:10036000400040080BD0C10D0723DB01C918400233
:100370000905400A1143C208400711437047002095
:1003800001467047CB0FDB07490010B5490802460C
:100390000A4307D00A0D07240903E401090B121BC5
:1003A000002A01DC002010BDC900440F0C43C1002D
:1003B000E018D205801800F050F810BD70B5044662
:1003C000002903D000202022012310E0002801D0C2
:1003D0000020C043C046C0460DE02546D5408D42B2
:1003E00005D30D469540641B1D46954040191546A2
:1003F000521E002DF1DC214670BDF0B51FB406463B
:10040000002082B005464024019100901BE0019934
:1004100022460F463046FFF76BFE049A059B801A72
:10042000994110D310461946224600F0AFF9361A0A
:100430008F410197224601200021009F00F0A6F97C
:1004400038184D4100902046641E0028DFDC019BD7
:1004500000982946324607B0F0BD002904DA401C56
:10046000490001D140084000704770B40024050CD9
:1004700005D11024000402D1002921D01124050E39
:1004800001D100020834050F01D10001241D850FA0
:1004900001D18000A41C002801DB4000641C00295D
:1004A00008D020252E1B0D46F540A14000D001218B
:1004B0002943084301061B1B000ADB1D02D500204F
:1004C00070BC7047DB05181880180029F8DA401C4A
:1004D0004900F5D170BC40084000704710B5002BB2
:1004E00008DA0024401C614192185B411A4301D193
:1004F0004008400010BDF0B51FB482B005460C00A6
:1005000003D0084604F060FB02E004F05DFB2030FD
:10051000024600902146284600F038F9049B059ACF
:1005200004460F4618431143084314D0184610439D
:100530001BD0009840210A1A18460599FFF7D8FDEC
:1005400005460E46009A0599049800F01FF90843E5
:1005500005D0012004E02046394607B0F0BD002058
:10056000C11705430E432C43374300990E9863058A
:10057000401A7905E40A00220C43FD0A0A3002D52C
:1005800000200146E9E70105101969410C9C0D9D09
:1005900000196941FFF7A2FFDFE70000F0B5074649
:1005A0000846584087B0C00F049048000E465900D6
:1005B00040084908BC1A884105D2384631461E46D3
:1005C00017460B4602465800400810434CD0300DE9
:1005D000039040055900400D490D0590401A0290C6
:1005E000402872DA18030121000B09050843019025
:1005F00004980092002805D00199524200208841B9
:1006000000920190029840210A1A0199009800F086
:10061000BDF805460C466B4607CB00F0C7F8C0197D
:100620007141039A0E0D0023D71756401A467A409F
:10063000164344D0049A002A2DD0029A012A039A24
:1006400015DC1205C01A914101263605001C7141C6
:10065000D20F059ED2070093019202962A462346A6
:10066000FFF749FF07B0F0BD38463146FAE71605F7
:10067000224A0F46B218C01AB74101210905001CD1
:100680004F4100187F41114618187941E20F10437D
:100690006D19644113E0E2076D0815436408C20751
:1006A0001443039A01261205C01A91413605001C15
:1006B0007141CE07400830434908C01851412A46CD
:1006C0002346FFF70BFFCDE7FFE704980122400028
:1006D000C117121A00238B4104983146C417381AE7
:1006E000A141EEE730B40124E407634030BC55E794
:1006F00030B40124E407614030BC4FE70000E0FF64
:100700004A0009030123090B1B0519430A4B10B5C5
:10071000520D9A4202DA0020014610BD064B3433D6
:100720009A4203DC9A1AFFF7E3FC10BD034BD21880
:1007300000F02CF810BD0000FF030000CDFBFFFF10
:1007400010B5002904DB0124E40740428C41214616
:10075000002B04DB1C460123DB075242A3419942D4
:1007600000D1904210BD0000064C0125064E05E068
:10077000E36807CC2B430C3C98471034B442F7D3C2
:10078000FFF7A2FC385500085855000810B5202A7C
:1007900004DB0146203A9140002010BD9140202307
:1007A0009C1A0346E3401943904010BD10B5202A1F
:1007B00006DBCB170846203A1041C1170B4306E071
:1007C0000B461341D0402024A21A914008431946F9
:1007D00010BD000080B52B384E2800D931E1400013
:1007E00078448088400087444E002C0151002C0141
:1007F0002C01540058005C006000640068006C002C
:100800007000740078002C012C012C012C012C01AB
:100810002C012C012C012C012C012C012C012C0170
:100820002C012C012C012C012C012C012C017C0011
:100830007F00820085002C0188002C012C012C01F6
:100840002C012C012C012C012C012C012C012C0140
:100850002C012C018B0099002C01B5002C01C1004A
:100860002C012C012C012C012C01DC002C012C0171
:100870002C01B8002C01F6002C012C012C012C01BC
:100880002C0110011E0100F06FFA80BD00F04CFA3F
:1008900080BD0B2000F006FA80BD022000F002FAB5
:1008A00080BD032000F0FEF980BD042000F0FAF9BD
:1008B00080BD052000F0F6F980BD062000F0F2F9B9
:1008C00080BD072000F0EEF980BD082000F0EAF9B5
:1008D00080BD092000F0E6F980BD0A2000F0E2F9B1
:1008E00080BD00F03DF980BD00F05AF980BD00F0F8
:1008F000B9F980BD00F0F8F980BD00F093F980BD32
:1009000050480021017072480268F02313430360CD
:100910004D48012202707048016080BD494801784D
:10092000002906D00178012903D00078022800D0E0
:1009300087E068483C210160416065480168F02219
:1009400091430160016860220A4302606248042109
:10095000016080BD3B48032101705D480168F022C1
:100960000A4302605C480021016080BD354801787F
:10097000002905D00178012902D00078022860D131
:10098000544846210160416051480168F02291437A
:100990000160016890220A4302604F480121016012
:1009A00080BD28480178002905D00178012902D0AE
:1009B0000078022845D147484621416044480168F3
:1009C000F02291430160016880220A43026042489C
:1009D0000321016080BD1B480178002905D0017802
:1009E000012902D0007802282BD13A484621016023
:1009F00037480168F02291430160016810220A43E0
:100A0000026035480221016080BD0E48012101705D
:100A10002F480268F023134303600B4801702E48EF
:100A20000021016080BD074802210170284801684B
:100A3000F0220A4302600448012101702648002187
:100A4000016080BD080000201A00002010B50628B3
:100A50003CD8F0221E49830001A4E3589F46C046BB
:100A6000C30A00087D0A00088B0A0008910A0008E2
:100A7000970A0008A50A0008B10A0008154846228E
:100A8000026042600120902217E01248462211E0E5
:100A90001048462208E00F483C22026042600420D1
:100AA00060220AE00B48322242600320802204E0E8
:100AB000084832220260022010220B68F024A3436F
:100AC0000B600B6813430B600349086010BDC04600
:100AD000140800483C0400403C000020F0B587B0FA
:100AE000039004A9EF2002904872BA200872FE20F9
:100AF000C8710220887100244C710C713F20C870AD
:100B000006278F70FF20019048707E250D70E3430B
:100B10000093A5480A26324602F00EFCC82000F0D9
:100B2000BDFC04A9029848720C48039A801A087206
:100B3000000AC8718A714C710C71CF708F70019866
:100B400048700D7098483246009B02F0F5FB7D20FE
:100B5000800000F0A3FC07B0F0BDC046F5FE000029
:100B600080B584B001A9EF204872FA200872FE20F7
:100B7000C87100208871487108710122CA7006226C
:100B80008A70FF224A707E220A70C34386480A2276
:100B900002F0D2FB642000F081FC04B080BDC046AE
:100BA00080B584B001A9EF204872ED200872FE20C4
:100BB000C87100208871487108710E22CA7006221F
:100BC0008A70FF224A707E220A70C34376480A2246
:100BD00002F0B2FB642000F061FC04B080BDC046AE
:100BE00080B584B001A9EF204872F7200872FE207A
:100BF000C871012088710020487108710322CA70F1
:100C000006228A70FF224A707E220A70C343664819
:100C10000A2202F091FB4B20800000F03FFC04B060
:100C200080BDC04680B584B001A9EF204872EE2097
:100C30000872FE20C87100208871487108710D2269
:100C4000CA7006228A70FF224A707E220A70C3434D
:100C500055480A2202F070FB642000F01FFC04B02B
:100C600080BDC04680B584B001A9EF204872F9204C
:100C70000872FE20C8710020887148710871022234
:100C8000CA7006228A70FF224A707E220A70C3430D
:100C900045480A2202F050FB642000F0FFFB04B03C
:100CA00080BDC04680B584B001A9EF224A72887128
:100CB00000224A710A710323CB7006238B70FF2335
:100CC0004B707E230B70074B181A0872000AC8710C
:100CD000D34335480A2202F02FFB642000F0DEFBEC
:100CE00004B080BDF8FE000080B584B001A9EF20FB
:100CF0004872E5200872FE20C87100208871487192
:100D000008711622CA7006228A70FF224A707E225B
:100D10000A70C34324480A2202F00EFB642000F04C
:100D2000BDFB04B080BDC04680B584B001A9EF20F2
:100D30004872F6200872FE20C87100208871487140
:100D400008710522CA7006228A70FF224A707E222C
:100D50000A70C34314480A2202F0EEFA642000F03D
:100D60009DFB04B080BDC04680B584B001A9EF20D2
:100D70004872F7200872FE20C871002088714871FF
:100D800008710422CA7006228A70FF224A707E22ED
:100D90000A70C34304480A2202F0CEFA642000F02D
:100DA0007DFB04B080BDC046AC030020B0B504207C
:100DB00000F01AF98B4C0821204600F04DFC002869
:100DC00001D000250DE00825284600F00DF9204649
:100DD000294600F041FC002801D0012501E0002057
:100DE000C5430821204600F037FC0028F9D1E8B2BD
:100DF000B0BDC046F0B585B07A4C0821204600F061
:100E00002BFC0028F9D0042000F0EEF80821204641
:100E100000F022FC04900821204600F01DFC002870
:100E2000F9D10821204600F017FC0028F9D0042051
:100E300000F0DAF80821204600F00EFC03900821AB
:100E4000204600F009FC0028F9D10821204600F0D6
:100E500003FC0028F9D0042000F0C6F80821204641
:100E600000F0FAFB02900821204600F0F5FB002874
:100E7000F9D10821204600F0EFFB0028F9D004202A
:100E800000F0B2F80821204600F0E6FB01900821AE
:100E9000204600F0E1FB0028F9D10821204600F0AF
:100EA000DBFB0028F9D0042000F09EF80821204642
:100EB00000F0D2FB00900821204600F0CDFB002876
:100EC000F9D10821204600F0C7FB0028F9D0042002
:100ED00000F08AF80821204600F0BEFB06460821F3
:100EE000204600F0B9FB0028F9D10821204600F087
:100EF000B3FB0028F9D0042000F076F80821204642
:100F000000F0AAFB05460821204600F0A5FB0028BA
:100F1000F9D10821204600F09FFB0028F9D00420D9
:100F200000F062F80821204600F096FB07460821F1
:100F3000204600F091FB0028F9D10499481E814118
:100F4000C801039900291AD1029900291BD10199DE
:100F5000002900D01030F0210140009A501E82413B
:100F6000D0000818711E8E41B1004018691E8D41D5
:100F700069004018791E8F41C01905B0F0BD40309E
:100F800002990029E3D0203001990029E3D0E1E75C
:100F9000F0B585B0002404940394029401270197CE
:100FA000082500950F4E6946304600F089FA304614
:100FB0002946224600F055FB782000F015F830460F
:100FC00029463A4600F04DFB032000F00DF804944A
:100FD00003940294019400956946304600F070FA3B
:100FE00005B0F0BD000800480D490A680B689B1A5F
:100FF000834213D200BF0B689B1A83420ED200BFFC
:101000000B689B1A834209D200BF0B689B1A83426C
:1010100004D200BF0B689B1A8342EBD37047C046D3
:10102000900000200D490A680B689B1A834213D276
:1010300000BF0B689B1A83420ED200BF0B689B1A3D
:10104000834209D200BF0B689B1A834204D200BFBF
:101050000B689B1A8342EBD37047C0469400002074
:1010600010B586B0044600200590049003900290CD
:1010700001900120082102F07FFF2046FFF76EF962
:1010800002460B4601AC06A1204603F089FD20462E
:1010900002F0AEFF252002F091FF06B010BDC04661
:1010A000483A252E3266000010B586B0044600216D
:1010B00005910491039102910191012002F05CFFDE
:1010C0002046FFF74BF902460B4601AC05A120462E
:1010D00003F066FD204602F08BFF432002F06EFF16
:1010E00006B010BD543A252E3166000070B50120BF
:1010F0001A4D29680A0516D4C9042ED506030524FD
:101100002046FFF771FF16480068304222D115488B
:10111000007801281ED11448016804291AD00068FB
:10112000002814D116E0C6020520FFF75DFF0C4829
:10113000006830420ED10B48007801280AD10A48D5
:101140000168042906D00068002803D00624204640
:10115000FFF77CFC28683043286070BD1404014010
:1011600010080048080000203C0000200B48002127
:10117000416201680122114301601102026A0A43BF
:101180000262704705480021416201680122114353
:1011900001601103026A0A430262704700040040C2
:1011A000F0B583B0002302933422825C012A02D17D
:1011B000022003B0F0BD0193074634370668B268D9
:1011C000520716D400970D684B6801242746AF409C
:1011D0003E4A934214D1B06AB843B06228461038F0
:1011E0000228019E3046009F5BD8112D1AD03C4842
:1011F00019E0816B20220A4382630120019E50E0A6
:10120000B26A3A43B262C06A421E072A4CD22846EA
:1012100010380228019E3046009F42D8112D0DD073
:1012200020060CE02D48102D00D12E4828490A68D0
:1012300002400A6030463E7003B0F0BDA005102D9C
:1012400000D1E00522490A6802430A60102D3046A9
:1012500027D1204800682049FFF7B0F80A21414310
:1012600002910298002830461BD00298401E02903E
:101270000298002811D00298401E0290029800287F
:101280000BD00298401E02900298002805D00298C8
:10129000401E029002980028E7D130463E7003B00D
:1012A000F0BD3E7003B0F0BD22079042AFD072692E
:1012B0000720024089689142A9D072698243726115
:1012C0000140706908437061A1E7C0460110000049
:1012D000082701400C00002040420F00FFFFBFFF25
:1012E000FFFFFFFEFFFF7FFFF0B581B00125002863
:1012F00062D0044606462436806B002803D0A06BDB
:10130000C00609D554E000203074E063204600F0A8
:1013100097F8A06BC0064BD420688168490747D472
:1013200081214900A26B8A43911CA1638268032139
:101330000A40012A05D10268D2070ED1C268120400
:101340000BD4C26818239A43A3681343C360890768
:1013500002698A43616811430161C168364A0A40E3
:10136000C260A16A491E4A1E91410903227E92036E
:10137000637EDB031343A27E55031D43E3682769A5
:101380002B430B43B91E4D424D41AD001D433178F7
:1013900049002943E37E012B14D1002A0FD0A26B10
:1013A00020231343A363E26B01231343E36309E0A8
:1013B000A06B10210143A163284601B0F0BD0122BA
:1013C00012041143E269FF23C2339A4202D0236A16
:1013D00019431143C2680A43C260E26A531E072BD5
:1013E00024D243690725AB4343612A404369134331
:1013F0004361C068114A02408A420AD10025E56370
:10140000A06B0121014302208143A163284601B062
:10141000F0BDA06B1021014302208143A163E06B6A
:1014200001252843E063284601B0F0BD01231B07D6
:101430009A42D6D0DDE7C0461902FEFFE7FF3F83A0
:1014400010B586B00021059104910068104A9042C1
:1014500001D006B010BD012042020E4B5C6814435F
:101460005C605C6814400094009AC0041A680243EF
:101470001A601A68024000920391032002900190C2
:101480000098054801A900F01BF806B010BDC04641
:10149000002401401410024000080048B0B5044682
:1014A00000F0E8F80546601C02D0044800780419F2
:1014B00000F0E0F8401BA042FAD3B0BD00000020CD
:1014C000F0B58AB002900D68002D00D1B9E05E48F9
:1014D000029A824201D0052000E004201723DB0697
:1014E000D2180A23DA410092042A00D30090002780
:1014F0003B463C4608912A460BE013433360079B6A
:10150000641C0A681046E040BF1C1B1D002800D167
:1015100097E001200646A6403240F1D004900793A0
:1015200003200346BB400397DF4349680D4605404F
:101530006B1E012B0697059113D80192029A9068B1
:101540003840089BDB68039FBB4003439360C80699
:10155000C00FA0405368B3431646019A034373601B
:1015600006E0032D029E039F02D10546079B1EE065
:10157000F0680699084008998B68BB400343F36004
:10158000022D079B13D11C2018400F218140E30836
:101590009B00F3181D6A8D43089E316981402943E1
:1015A0001962079B7068029E032505900540BD40A7
:1015B0003068069908402843306005988003800F02
:1015C0000899049D9CD0224908682843086008684F
:1015D000284009900C2018400F2181400323254604
:1015E0009D43099B1B4EAB598B4300998140194386
:1015F000A9510899154EB5684868C3020FD515431F
:10160000B560F56883020FD49543F5607568830370
:101610000FD4954375603368C00310D56DE79543CB
:10162000B560F5688302EFD51543F56075688303EF
:10163000EFD5154375603368C00300D55DE793436C
:101640005CE70AB0F0BDC04600100048000401404D
:10165000181002400800014000690840411E8841FE
:101660007047002A02D018228150704728228150EA
:1016700070470000CF4800687047C046B0B50246CA
:10168000034640335C780220202C17D11C78012CB3
:1016900014D024205870106802680124A24302600C
:1016A000220305689543056002680A4302600168E9
:1016B000214301600020187020215970B0BDB0B5E1
:1016C0000246034640335C780220202C17D11C7858
:1016D000012C14D024205870106802680124A24301
:1016E00002600F2212020568954309022943016036
:1016F0000168214301600020187020215970B0BD9D
:10170000F0B581B0002822D00446054640356878FF
:10171000002804D100202870204600F013F924206E
:1017200068702068026801218A4302600F22120655
:101730006368934303618368194A13408360A36815
:10174000E668012E06D1CE03334383600AE0012010
:1017500001B0F0BD2127BF023B438360022E01D1BF
:10176000CB02436043680F4E1E434660C36813407C
:10177000C360226963691343A26912021A43C260FB
:10178000E269236A1343036002680A43026000208F
:101790006064202169702063A87001B0F0BDC0466C
:1017A000FF7FFFFF00800002F0B587B0069104467E
:1017B0000146403148780225202800D0A0E005915C
:1017C0000878012800D19BE0039304920125059835
:1017D0000570FFF74FFF064621688869000419D499
:1017E0002120059A507010209070002262640398A6
:1017F0006085049860626263608D000A4A4D0292BF
:101800001DD0069A2A404868484D0540091DFF230F
:1018100048481FE0EF0302E088693842E0D0FFF754
:1018200029FF801B21681A28F6D388693842F3D033
:10183000606C202108436064059A51706DE0638DEF
:1018400048683A4A024006982840DDB22D042D1817
:10185000091D37480C9F2A4302430A602385608D87
:10186000002845D0069830490840069012E0608D67
:10187000208521684A68304B1A40C0B200041043EA
:1018800001225206091D069B184310430860608D13
:1018900000282DD020463946324601F02DFF012583
:1018A00000282DD12068616A0A788262608D401E0E
:1018B0006085481C6062208D401E2085618D002956
:1018C000E5D00004E3D100968021002220463B466B
:1018D00001F060FE002813D1608D000AC7D0FF2000
:1018E000208521684868144A1040091D134ACAE738
:1018F00020463946324601F0BCFE002803D00125BF
:10190000284607B0F0BD20682021C16142680C4B19
:1019100013404360059A5170029D00201070907032
:10192000284607B0F0BDC046FF030000009800FC49
:10193000002000020020FF01009C00FC0000FF01CD
:1019400000E800FEB0B586B000681349884201D0B7
:1019500006B0B0BD114C206801250595A9040843C7
:10196000206020680840009003200490002003902D
:1019700012200290C02001900098094801A9FFF7A9
:101980009FFD6805A1680143A160A1680140009125
:10199000009806B0B0BDC04600540040141002408C
:1019A000000400481A48007802490A6810180860C4
:1019B0007047C046BC04002010B5DD480168102205
:1019C0000A4302600024204600F004F800F022F8E8
:1019D000204610BD70B504467D20C0000C4E317805
:1019E000FEF7ECFC0146DA480068FEF7E7FC00F081
:1019F0003BFC0125032C08D8002806D10025E8432C
:101A000021462A4600F028F87460284670BDC0467A
:101A10000000002082B009480168012211430160E2
:101A20000168114001910199110742680A4342601F
:101A3000406808400090009802B0704718100240BB
:101A4000002805D41F210840012181400148016080
:101A50007047C04600E100E0002805D40322034699
:101A600093430A4A9A1803E00C220240064BD2180C
:101A70008007C00E8901C9B28140FF2383401068EE
:101A8000984308431060704714ED00E000E400E064
:101A9000F0B585B004468078C0074C4B4FD001208C
:101AA000039001071A1F10680840029006D11068C1
:101AB0000843106010680840049004980092019157
:101AC000434E3068C00513D403980702306838438A
:101AD0003060FFF7CFFD05463068384208D1FFF788
:101AE000C9FD401B6428F7D90325284605B0F0BD81
:101AF00003252802354B1968014012D06268024064
:101B000091420ED00398000419681A6802431A60C3
:101B10001A6882431A6008462E4A10401860C807A7
:101B200045D118682B490840616801431960029843
:101B3000002804D1009A1068019988431060206839
:101B4000C10709D181070FD4810616D481031CD4A3
:101B500000254005C9D521E0196903229143A268F7
:101B60000A431A618107EFD5032109041A698A43E0
:101B7000E168114319618106E8D519691022914382
:101B800022690A431A618103E2D5196980229143CF
:101B9000A2690A431A6100254005A6D518694021AB
:101BA0008843616901431961284605B0F0BDFFF71C
:101BB00061FD06465F4F054B18688007B1D4FFF7FB
:101BC00059FD801BB842F6D98FE7C046201002406D
:101BD00000700040FFFCFFFFF0B581B0002847D047
:101BE0000446534A1368012003408B4208D213680D
:101BF0000126B3430B431360126832408A4238D146
:101C0000009121688A07694B11D54A0707D5072239
:101C10001202664B1B681343644A1360634B1A68D5
:101C2000F0239A43A3681343604A13605F4BC907CC
:101C300022D13F49086801263040009A904205D9D8
:101C40000868B04308600868C00712D120784007D0
:101C500006D50720000219688143E0680843186030
:101C60001A681007810F5248022912D2044650E028
:101C70000126304601B0F0BD616803290DD01A1F5E
:101C800002290FD0012912D1126892030646F0D51D
:101C900011E0032926D1474C3BE01A6B920306461C
:101CA000E7D508E0126892010646E2D503E0126823
:101CB00092070646DDD518680326B043084318602E
:101CC000FFF7D8FC07461B4D384B18680C21014024
:101CD000606880008142ACD0FFF7CCFCC01BA842FA
:101CE000F2D9C6E70321CB033049896A0F240C409F
:101CF0003149095D94021A40240F304D2C5D9A42FF
:101D000002D033049A4200E02A48FEF757FB4443CE
:101D1000264B18680006000F0749085CC4400C48B1
:101D2000046000263046FFF755FE304601B0F0BD96
:101D30000020024088130000CA54000804480068CC
:101D40001A4909684905490F024A515CC840704761
:101D50000C000020DA540008B0B514490A681007D6
:101D6000830F1348022B00D2B0BD032B01D11148C1
:101D7000B0BD0323DB03896A0F240C400E49095DC3
:101D800094021A40240F0D4D2C5D9A4207D0012376
:101D90001B049A42FEF712FB44432046B0BD05489F
:101DA000FEF70CFB44432046B0BDC0460410024081
:101DB00000127A00006CDC02F2540008E2540008C1
:101DC000F0B587B004460120002C00D145E2049014
:101DD0002078C007F94E05940CD071680C200140A2
:101DE000042900D090E03068800303D560680028A3
:101DF00000D120E12078800721D570680007800F8E
:101E00000ED070680C210140082900D09DE003200D
:101E1000C003716801400120C003814200D094E0FA
:101E200030688007059C03D5E068012800D002E1F6
:101E30003068F82188432169C90001433160059C5D
:101E40002078000724D42078400737D42078C006B3
:101E500000D4D3E005984069411D00D1C2E00128BB
:101E600000D030E1706B042101437163706B01217C
:101E700001437163FFF7FEFB0546706B800700D5D9
:101E8000B4E0FFF7F7FB411B03200229F5D9E4E199
:101E9000706AE169002900D181E001210843706284
:101EA000FFF7E8FB0546706A8007CCD4FFF7E2FB3A
:101EB000401B0228F7D9032007B0F0BD0120039092
:101EC0000107F0690840029006D1F0690843F0610B
:101ED000F0690840069006980191E14F3868C00506
:101EE0004AD403980402386820433860FFF7C2FBE5
:101EF0000546386820423FD1FFF7BCFB401B6428F1
:101F0000F7D9032007B0F0BD71680140082908D156
:101F10000320C0037168014001200004814200D108
:101F200061E7616801204704002900D117E1052914
:101F300000D12BE1012900D12CE1010432688A4350
:101F4000326081043068884327E13068059CE1688D
:101F5000002936D0012108433060FFF78BFB05468E
:101F60003068800700D563E7FFF784FB401B022839
:101F7000F6D9032007B0F0BD05988068002800D18D
:101F8000B6E0052800D1C9E0012800D1CAE0306AD6
:101F9000039988433062306A04218843C5E00121F7
:101FA00088437062FFF766FB0546706A800700D4BD
:101FB00049E7FFF75FFB401B0228F6D9032007B073
:101FC000F0BD012188433060FFF754FB05463068BF
:101FD000800700D433E7FFF74DFB411B03200229A4
:101FE000F5D93AE1706B042188437063706BF82176
:101FF000884305998969C900014371630598007890
:1020000080060BD571680C2001400C2939D1706B0A
:10201000800303D50598006A01280CD10598446A0D
:10202000002C00D1E1E070680C210140082905D1A5
:10203000012C00D0C4E0049807B0F0BD01200206D6
:1020400031680492914331604706FFF713FB054660
:10205000022C0BD1049C3068384200D1DEE0FFF73F
:1020600009FB411B03200229F5D9F6E0306838420C
:1020700000D1BAE0FFF7FEFA411B03200229F5D98F
:10208000EBE071680140082905D10320C0037168A5
:1020900001408142BBD0706B0599096A002900D1CB
:1020A000A9E001210A04104370634C04FFF7E2FA2F
:1020B0000546706B2042B1D1FFF7DCFA411B0320CB
:1020C0000229F6D9C9E0706B042101437163706B7A
:1020D000012188437063FFF7CDFA0546706B8007D6
:1020E0008CD5FFF7C7FA411B03200229F6D9B4E0CB
:1020F000306A039988433062306A04218843306231
:10210000584CFFF7B7FA0546306A80071DD5FFF730
:10211000B1FA411B0320A142F6D99EE0306A0421A6
:1021200001433162306A0399084330624D4CFFF736
:10213000A1FA0546306A800707D4FFF79BFA401BD7
:10214000A042F7D9032007B0F0BD02980028059CF3
:1021500000D07BE6F06901998843F06176E60104DE
:1021600032688A4332608004316881433160FFF70E
:1021700081FA0546059C3068384200D13AE6FFF7FF
:1021800079FA411B03206429F5D966E0810432689D
:102190000A4332600104306808433060FFF76AFA8E
:1021A00005463068384200D024E6FFF763FA401B4A
:1021B0006428F6D9032007B0F0BDC04600100240E5
:1021C0000320C20370680240F16A059CA36A9A4228
:1021D000049D0DD10F221140236B994208D1910427
:1021E0000840E16A8842284637D1002007B0F0BD98
:1021F000284607B0F0BD01210A04904370634C04E7
:10220000FFF738FA0546706B204200D106E7FFF76A
:1022100031FA411B03200229F5D91EE0F06A0F2193
:102220008843059A116B0143F1627B20C0037168FA
:102230008143D06A0843916A01437160306820434A
:102240003060FFF717FA044630683842CDD1FFF707
:1022500011FA011B03200229F6D907B0F0BDC046D0
:102260000070004088130000401E010E01D00120C4
:1022700070470749074A5060074803680B4003212D
:10228000890759180160002090600721116070478C
:10229000FFFFFF0010E000E020ED00E07047704716
:1022A00070B53C22825C012A01D1022070BD034638
:1022B0003C3300221A703F231B02CC689C430F233F
:1022C0009D028E68AE432643DB024C689C43344338
:1022D00007231B030D689D43254303235B030C6900
:1022E0009C432C434B6923430124A403A343C969A2
:1022F000194300684164104670BD000010B53C22CF
:10230000825C012A01D1022010BD02463C32022328
:102310005370006843687024A3430C681C438368AF
:102320004460464CA04207DC0124A407A04209D027
:10233000414CA04206D00AE0434CA04202D03D4CA2
:10234000A04204D18024A34349681943816000203E
:1023500010700121517010BD70B5002829D00446BD
:1023600005463C356878002804D1002028702046B6
:1023700000F070F80220687021680E680120830761
:10238000994205D02B4A914202D02B4A914219D151
:1023900070229643A2683243284EB14216DD284B84
:1023A000994208DC234B994218D0FE4B994215D034
:1023B0003EE0012070BD234B99420FD0424B994221
:1023C0000CD035E03246F64EB142E8DC994205D0F9
:1023D000F54B994202D01D4B994229D103231B0290
:1023E0009A432369134322463E328026B343A669AB
:1023F0001E430E60E368CB6263688B62144BCB189C
:102400000A26F341072B06D806469E40E1231E42CA
:1024100001D063690B634861107210705070907046
:10242000D070107150719071D0716870002070BDC3
:102430001346D8E7002C014000040040FF2B014068
:10244000FF4301400048014000400140002000409F
:1024500000D4FEBF10B584B000681B49884211D07B
:102460001A4988421BD01A4988422AD11948016862
:10247000102211430160006810400390039811245A
:10248000012117E001214804124A121F1368034377
:102490001360126802400192019815240AE00D4869
:1024A00001682022114301600068104002900298E8
:1024B0001224022100222046FFF7CEFA2046FFF721
:1024C000BFFA04B010BDC0460044014000140040F3
:1024D000001000401C10024070B50446007F012827
:1024E00045D1474E3079012813D0002800D086E02E
:1024F0000021204600F014FE0121317121680A6A92
:102500000A239A430A62B061086A022202430A62FD
:102510002CE000252046294600F002FEF0612168EB
:102520004D62B269904202D804D2364BC018801A6C
:10253000306200E0306A0A6A0A239A430A620A6A31
:102540000A623571FDF7D8FE2F4A304BFDF7F4FDD6
:102550002F4B2A46FDF7F0FDFDF7DCFE2D490870F4
:102560002D480068C16802229143C160207F08287D
:1025700045D1234D2879012813D000283FD10C21C3
:10258000204600F0CDFD0121297105225203236868
:102590001C6A94431C62A8614803196A01431962CA
:1025A00070BD0C21204600F0BBFDE86121680024CD
:1025B0004C62AA69904202D804D2124BC018801A09
:1025C000286200E0286A052252030B6A93430B62DB
:1025D0000A6A0A622C71FDF78FFE0B4A0B4BFDF75E
:1025E000ABFD0B4B2246FDF7A7FDFDF793FE094916
:1025F000087009480068C16810229143C16070BD2D
:1026000018000020FFFF00009CC420B07268A13FAA
:102610000000E03F09000020EC000020F0B582B08F
:102620003C23C35C012B02D1022002B0F0BD034663
:102630003C330224E241032A1AD8C0467A44127974
:1026400052009744011A3E5F0268146A01208443D5
:1026500014629669CC68019430C90095156ADD4F03
:102660000839BA4274DC8707BA4277D0DC4F73E08E
:1026700001200021197002B0F0BD0068026A102428
:10268000A24302624A681202444C1440CA68120310
:1026900092B21219F32424028569A5431543026AF4
:1026A00085610C682401A0252C40AA4312190262FE
:1026B0000322920284699443846189680902183074
:1026C00063E0012212020068046A944304624A68CB
:1026D000F024A243CC682401E4B2A218C469F32513
:1026E000AC431443026AC461052464020D682D02E0
:1026F0002540A24352190262C2690C24A243C2615E
:10270000896823E0012212030068046A944304628A
:102710004A681202214C1440CA68120392B212197C
:10272000F3242402C569A5431543026AC561052443
:1027300064030D682D032540A2435219026203224F
:102740009202C4699443C461896809021C301CE088
:10275000A14FBA4202D0A14FBA4202D10320864310
:102760000098064310461830F027BE43019F3F01F2
:10277000FFB2F61996610A263440B5432C1914624B
:1027800094690C25AC439461896802680A4302602D
:1027900000200021197002B0F0BDC046000FFFFFFD
:1027A000FF2B0140004001400004004070B50028AC
:1027B00029D0044605463C356878002804D100201D
:1027C0002870204600F06AF80220687021680E68C0
:1027D00001208307994205D0804A914202D0EF4AF6
:1027E000914219D170229643A2683243794EB14288
:1027F00016DD254B994208DC784B994218D0E64B00
:10280000994215D03EE0012070BD204B99420FD077
:102810001F4B99420CD035E032466E4EB142E8DC97
:10282000994205D0DD4B994202D01A4B994229D1E9
:1028300003231B029A432369134322463E32802618
:10284000B343A6691E430E60E368CB6263688B6284
:10285000114BCB180A26F341072B06D806469E409B
:10286000E1231E4201D063690B634861107210704E
:1028700050709070D070107150719071D0716870FC
:10288000002070BD1346D8E7FF43014000480140D7
:10289000004401400020004000D4FEBFB0B586B027
:1028A00000684E49884201D006B0B0BD0120C10287
:1028B000BB4A53680B43536053680B400193019923
:1028C0004004116801431160116801400091022029
:1028D00005900024049403940290092001020191C0
:1028E0000099C00601A9FEF7EBFD0E2528462146FA
:1028F0002246FFF7B1F82846FFF7A2F806B0B0BDB0
:10290000B0B503463E33002906D0082910D004296B
:1029100011D15C1D5A1C10E01C78012254401D7915
:10292000554025432C0651D102221A701A7119E024
:102930009C1D9A1C01E0DC1DDA1C15780122554013
:10294000247854402C43240640D10222082904D084
:10295000042905D15A705A7104E09A709A7101E005
:10296000DA70DA7102230A46DA41032A1BD8920090
:10297000174B9A580068C3681343C3601F22114065
:10298000012213468B40016A99430162016A19438F
:1029900001621049884208DC910788420BD07F49C8
:1029A000884208D00EE00120B0BD7B49884202D0A9
:1029B0000A49884206D1816807230B40062B01D1C2
:1029C0000020B0BD01681143016000221046B0BD77
:1029D00004550008FF2B014000400140002C01403D
:1029E00000040040B0B504468020C543206801695A
:1029F000890717D5C168890714D529467E31016139
:102A0000012121778069800703D02046FFF764FD0C
:102A100005E0204600F0CAF8204600F0ADFA00209C
:102A2000207720680169490718D5C168490715D57D
:102A300029467C3101610221217780698005800F60
:102A400003D02046FFF748FD05E0204600F0AEF831
:102A5000204600F091FA00202077206801690907DC
:102A600017D5C168090714D52946783101610421B9
:102A70002177C069800703D02046FFF72DFD05E0D0
:102A8000204600F093F8204600F076FA00202077E8
:102A900020680169C90618D5C168C90615D5294637
:102AA0007031016108212177C0698005800F03D052
:102AB0002046FFF711FD05E0204600F077F820469C
:102AC00000F05AFA0020207720680169C90709D070
:102AD000C168C90706D029467F310161204600F050
:102AE0001DFB20680169090607D5C168090604D5E0
:102AF00005612046FFF7D2FB20680169490609D528
:102B0000C168490606D5294640310161204600F0DA
:102B100023FB20680169890607D5C168890604D5A9
:102B2000603505612046FFF7BAFBB0BD10B586B031
:102B30000021059104910391029101910068FA4AE4
:102B4000904211D0F44A904223D10120C004144A8B
:102B50001368034313601268024000920098032038
:102B6000030211480A460BE0012290040C4B1C683A
:102B700004431C601B6803400093009893030948BA
:102B800005920491039102210291019301A9FEF79C
:102B900097FC06B010BDC046004001400004004054
:102BA000141002400004004800080048704700006C
:102BB000F0B583B03C23C35C012B02D1022003B0EB
:102BC000F0BD07463C370223DA41032A39D8029781
:102BD0007A4412795200974401394C610268146AB0
:102BE000012084431462D24C14190A25EC41156A61
:102BF0009D438E682E43536800930B68019395693B
:102C0000072C00D9ECE00346A340E1273B4200D16A
:102C1000EAE00C239E43CB680427BB433343029F67
:102C2000072C00D9E5E0A040E124204200D1E0E0FB
:102C300003200002009E86434C69886934430443A4
:102C4000D8E001200021397003B0F0BD0268106A9D
:102C5000102398431062106A202398438B681B014D
:102C6000034350680D689469AA4EB24250D01E4684
:102C700055E001273B020268106A9843106278020F
:102C8000146A844388680302234350680C680194E3
:102C9000D569F34EB24256D01E465DE0012633039D
:102CA0000268106A98431062EA4813180A20C34168
:102CB000156A50688C680F680197D769072B00D98F
:102CC000B4E0009434469C40E1231C4200D1AFE0C4
:102CD000B30398434B699B010343009C10461C308F
:102CE000536073231B029F43019B1B023B43D36131
:102CF0004B68136473039D4323032B431362F30256
:102D0000D4691C43D461B302D4699C43D4614CE0C0
:102D1000C026B343CE6836014027BE431E43CD4B89
:102D2000D3180A27FB41072B29D801279F40E1230D
:102D30001F4224D003239B0298434B698F691F4392
:102D4000BB0003431CE00326B602B343394CFF3CEF
:102D5000CE68360226401E43ED4BD3180A24E341C9
:102D6000072B26D89F40E1231F4222D003231B03B9
:102D700098434B698C691C43230103431AE00346C3
:102D800010461830536073231B029C432B022343CD
:102D900093614B68936316620123DC0295692543B6
:102DA00095619B0294699C43946109690902029FA1
:102DB00034E00346029F10461C30536073239D434A
:102DC000019B1D43D5614B68D3631662D369082408
:102DD0001C43D461D3690424A343D36109691DE072
:102DE0003346072C05D81EE73346029F072C00D830
:102DF00019E7009C1046183054607324A543019CC9
:102E0000254395614C6854631362936908241C43FD
:102E1000946193690424A3439361096902680A4396
:102E2000026000200021397003B0F0BD034655E771
:102E3000034652E7FFFBFFFF70B5002829D0044688
:102E400005463C356878002804D1002028702046CB
:102E500000F070F80220687021680E680120830776
:102E6000994205D07E4A914202D07E4A914219D1C0
:102E700070229643A2683243774EB14216DD274B4B
:102E8000994208DC764B994218D0744B994215D080
:102E90003EE0012070BD224B99420FD0214B994258
:102EA0000CD035E032466C4EB142E8DC994205D098
:102EB0006C4B994202D01D4B994229D103231B022E
:102EC0009A432369134322463E328026B343A669C0
:102ED0001E430E60E368CB6263688B628C4BCB1839
:102EE0000A26F341072B06D806469E40E1231E42E0
:102EF00001D063690B63486110721070507090705C
:102F0000D070107150719071D0716870002070BDD8
:102F10001346D8E7002C014000040040FF43014065
:102F200000480140004401400040014000200040B2
:102F300000D4FEBF82B00068484988420DD049499C
:102F4000884214D10B484168022211434160406815
:102F500010400190019802B070470120000405491B
:102F60000A6802430A60096801400091009802B0B3
:102F70007047C046181002407047000002463E32BB
:102F8000002908D008290CD004290FD1531C1B7824
:102F9000012B49D10EE01378012B45D10223137088
:102FA00012E0931C1B78012B04D03DE0D31C1B784E
:102FB000012B39D10223082903D0042903D15370EE
:102FC00002E0937000E0D37002230A46DA41032A3C
:102FD0002AD892001E4B9A580068C3681343C360F6
:102FE0001F221140012213468B40016A994301625E
:102FF000016A19430162464941180A23D941072948
:1030000008D813468B40E1210B4203D0D103436C17
:103010000B4343641049884208DC910788420BD077
:103020001049884208D00EE0012070470B498842C1
:1030300002D00B49884206D1816807230B40062B3A
:1030400001D10020704701681143016000207047E2
:103050000455000800D4FEBFFF2B01400040014092
:10306000002C01400004004070B502230A46DA41FA
:10307000032A2ED89200254B9A580368DC68144026
:10308000DC601F240C4001221546A5401C6AAC439D
:103090001C621C6A1C621E4C1D190A24E5411D4C51
:1030A000072D0BD81646AE40E1252E4206D01D6AEC
:1030B000254203D11D6A184E35420CD01D6A2542A7
:1030C00010D11C6A144D2C420CD11C6894431C6016
:1030D00008E0012070BDD5035E6CAE435E641D6ADE
:1030E0002542EED03E30082906D0042907D0002919
:1030F00008D10270002070BD8270002070BD427047
:10310000002070BDC270002070BDC046145500087C
:1031100000D4FEBF111100004404000070470000FD
:103120000222D141032909D87944097949008F4401
:1031300001070B0F006834300068704700207047AB
:10314000006838300068704700683C30006870479D
:1031500000684030006870477047B0B500282FD035
:103160000446C06F002805D1782000212154204654
:1031700000F028F82420E067206801680125A943B1
:103180000160204600F09AFC012817D0606A0028F0
:1031900002D0204600F0C6FB0920C00221684A6820
:1031A00082434A6088682A22904388600868012226
:1031B00002430A60204600F01FFC05462846B0BDC9
:1031C0000120B0BD70B586B000240594049403942A
:1031D0000294019400685149884226DC5249884291
:1031E00053D05249884200D096E0012080045049D3
:1031F0008A6802438A608A6802400092009A0A68DC
:1032000002430A60096801400091042005900325EB
:103210000495039402200290A8020190009845486A
:1032200001A9FEF74DF91D2625E03D4988424BD006
:103230003C49884270D13E4841680122059293037F
:103240001943416041681940009100995104026896
:103250000A43026000680840009003250495039427
:10326000022002906802019000980920C00601A97E
:10327000FEF726F91B26304629462246FEF7ECFBD0
:103280003046FEF7DDFB06B070BD2948816801229B
:1032900005925204114381608168114000910099A8
:1032A0000168114301600068104000900494039489
:1032B000022002900C20019000980920C00601A96C
:1032C000FEF7FEF806B070BD0120C104184A9368ED
:1032D0000B43936093680B4000930099400411687E
:1032E00001431160116801400091042005900325FD
:1032F0000495039402200290019500980920C006CD
:1033000001A9FEF7DDF81D26304629462246FEF7C4
:10331000A3FB3046FEF794FB06B070BDFF4B0040A8
:10332000004C00400038014000440040004800408C
:103330001410024000040048F0B585B00546C06F87
:10334000202811D1012000290CD01646002A09D0CE
:1033500001200703AA68BA4209D1CA0707D02A691F
:10336000002A04D105B0F0BD022005B0F0BD0191E6
:1033700003932C4650340020029060632120E867BC
:10338000FEF778F9049066802680A868B84202D1DA
:103390002869002801D0019F02E0002701980290CF
:1033A00003990BE0029A1188184B19400185921C71
:1033B0000292374603996088401E6080608800282A
:1033C00010D000918021002628463246049B00F050
:1033D0001FFC002814D12868002FE3D0397801851C
:1033E0007F1CE7E70091402100222846049B00F063
:1033F0000FFC2021E9670028B4D0032005B0F0BD00
:103400002020E867032005B0F0BDC046FF010000A2
:10341000FEE70000F0B585B00E460446403004904B
:1034200020688169C90606D400210F4601258269FA
:10343000D30545D448E01021C1618169890637D49C
:10344000711C32D015460120002E6CD186030390EA
:10345000C7030297FEF70EF920684268049989783D
:1034600083693B4209D0324007D1202905D0416809
:1034700031434160FEF7FEF8054620688169890600
:1034800005D4FEF7F7F8401B1A28F6D377E08169D8
:103490008906029FDED50BE08169890608D481691F
:1034A000890605D48169890602D481698906F3D524
:1034B0002021C1610127042101258269D30503D59B
:1034C0002B02C36129432F466B02560506D41A42CC
:1034D0000AD1002F0BD1002005B0F0BDAD02C561AF
:1034E000082529431A4202D0C3610222114382698E
:1034F000920701D5002282628269D20703D18269D4
:103500000123134383614268214B13404360606C85
:103510000843606420200499487000200870887077
:10352000012005B0F0BD810302910390C00301901A
:10353000019F03E0206881698906B9D4FEF79AF8F3
:10354000401BB042F6D920684268049989788369A3
:103550003B420BD0029B1A4008D1202906D041687B
:10356000029A11434160FEF785F80546206880699C
:103570008006DFD4FEF77EF8401B1A28F6D32068B9
:1035800081692421039F01258269D30598D49BE793
:1035900000E800FEF0B583B01C4615460E4607460F
:1035A000036899693140891B4A424A410020AA4276
:1035B00034D1611C2BD0002C32D10446FEF75AF8CE
:1035C000386881693140891B4A424A41AA4240D049
:1035D00080693040801B41424141A942EED02046E3
:1035E00003B0F0BD99693140891B4A424A41AA4261
:1035F00014D199693140891B4A424A41AA420DD1EE
:1036000099693140891B4A424A41AA4206D19969C7
:103610003140891B4A424A41AA42E3D003B0F0BD7F
:1036200001900898029006E080693040801B41427A
:103630004141A9421AD1FEF71DF80299411A386892
:10364000A142F1D981693140891B4A424A41AA42CB
:10365000EAD138464030796C2022114379644270B7
:10366000002101708170012003B0F0BD019803B00A
:10367000F0BDF0B581B00546006880690024800681
:1036800022D416460F46002903D129E0806980061E
:103690001AD4284639463246FFF7BCFE002827D107
:1036A000FDF7E8FF811B2868B942EFD981698906D7
:1036B000ECD428464030696C202211436964427082
:1036C0000021017081700124204601B0F0BDFDF79A
:1036D000D1FF286881698906EBD580698006F3D41B
:1036E0000024284621463246FFF794FE0028EED0FB
:1036F0000124204601B0F0BDF0B581B00546006858
:1037000080690024800716D416460F46481C19D03D
:10371000002F26D10024284621463246FFF77AFEA4
:10372000002838D1FDF7A6FF28688169890728D5C8
:1037300080698007EED5204601B0F0BD2868806919
:103740008007F8D40024E14328463246FFF762FEA2
:103750000028F3D00124204601B0F0BD8069800725
:10376000E9D4284639463246FFF754FE002812D1E4
:10377000FDF780FF811B2868B942EFD9816989076D
:10378000ECD428464030696C2022114369644270B1
:103790000021017081700124204601B0F0BDFEE7D8
:1037A000014908607047C046344001401348007822
:1037B000292804D313483C21016041607047152833
:1037C00004D3104832210160416070470B2804D3B4
:1037D0000C482821016041607047062804D309483D
:1037E0001E2101604160704705480168F0220A43CC
:1037F00002604A48002101607047C046090000206D
:10380000140800483C0400407047704780B5FEF73C
:10381000C9F880BD7047000004480168491C016078
:103820000348016801229143016070479000002025
:103830001044014080B50248FFF7D4F880BDC0466F
:10384000EC00002004480168491C0160034801683D
:103850000122914301607047940000201010004045
:10386000B0B52A4C2068401C206029480178002906
:1038700002D00078012843D12648816804220A43F7
:1038800082600168490708D40168490705D40168C6
:10389000490702D401684907F3D5016C61600168EA
:1038A000490708D40168490705D40168490702D4CB
:1038B00001684907F3D5006CA0606068164DA84206
:1038C0000DD916480068012809D10320FDF7BEF87C
:1038D0004B208000FDF7E2FD0120FDF7B7F8A0685E
:1038E000A8420DD90D480068012809D10220FDF732
:1038F000ADF84B208000FDF7D1FD0120FDF7A6F8C3
:1039000007480168012291430160B0BD800000209A
:1039100008000020002401408A0200003C00002032
:1039200010140040B0B5416ACA070CD18A0714D4FC
:103930004A071CD40A0724D4CA062CD48A0634D4D5
:103940004A063CD44CE00122520403685C6894436C
:10395000826A22435A608A07EAD501221204036868
:103960005C689443C26A22435A604A07E2D5012246
:10397000920403685C689443026B22435A600A070E
:10398000DAD50122D20303685C689443426B224378
:103990005A60CA06D2D50122120303689C68944378
:1039A000826B22439A608A06CAD5012252030368B9
:1039B0009C689443C26B22439A604A0610D5012248
:1039C0001305026854689C43056C2C4354609D4267
:1039D00006D103235B0554689C43436C2343536027
:1039E000090607D50121C904026853688B43806C1E
:1039F00018435060B0BD0000F0B583B004460646E1
:103A000078360027F760FDF735FE03462068016829
:103A100009071FD528480090012002904105002287
:103A200020461D4600F0F4F8002811D0EFF3108076
:103A3000029981F3108821680A6880239A430A60FA
:103A400080F310882020E0670320377003B0F0BDBA
:103A500020682B460068400725D5174800900125AF
:103A6000A9050022204600F0D3F800281BD0EFF370
:103A7000108085F3108809214901226813688B435F
:103A8000136080F31088EFF3108085F310882168AD
:103A90008A68AA438A6080F310882020B0600320DF
:103AA000377003B0F0BD2020E067B060276667661E
:103AB0003846377003B0F0BDFFFFFF01B0B50446D4
:103AC00000680168484A0A40A16823690B43656998
:103AD0001D431543E1690D4305600322120343684A
:103AE0009343E2681A434260A269236A13430B229C
:103AF0001202856895431D43856000223B4B984226
:103B000006DC3D4B984210D03C4B984216D014E056
:103B1000374B984212D0374A90420ED1384800684D
:103B20008007000F374A125808E035480068800BBC
:103B30000C2202403348825800E010220125EB039A
:103B40003148994210D1082A49D8C0467A4412799E
:103B50005200974404442044194444441F00FEF793
:103B6000EDF8002817D113E0082A38D87A441279E2
:103B70005200974404342734203434342600FEF7AE
:103B8000DDF800281ED11AE0FEF7E6F8002802D181
:103B9000002524E01846400061684A081018FCF728
:103BA0000DFC0246103A19498A4218D2014000071A
:103BB000400F084310E0FEF7CFF8002802D100259F
:103BC0000DE0184661684A081018FCF7F7FB01463B
:103BD00010390E4A914202D22168C86000250020A7
:103BE000A066E0662846B0BDF369FFEFFF4B0040DA
:103BF000004C0040003801400044004000480040B4
:103C0000301002402455000800127A00F0FF000036
:103C1000F0B587B015460F460668F1693940C91BF3
:103C20004A424A410021AA4225D106930C9C002C0D
:103C300024D00B46611C26D1F1693940C91B4A4288
:103C40004A41AA4214D1F1693940C91B4A424A414A
:103C5000AA420DD1F1693940C91B4A424A41AA42E0
:103C600006D1F1693940C91B4A424A41AA42E3D010
:103C7000184607B0F0BD084607B0F0BDFDF7FAFCE6
:103C8000032007B0F0BD0293014678310391012172
:103C90000191C9020491059006E0C9693940CA1B27
:103CA00051425141A9424BD1FDF7E4FC0699411A1A
:103CB0000323A142DCD8059801680A685207ECD5B5
:103CC000CA6912073FD4CA692646049C2242344678
:103CD000E3D01F4604980862EFF31082012181F3BC
:103CE000108809235B010598046825689D432560B9
:103CF00082F31088EFF3108281F31088059803682F
:103D00009C688C439C60059882F31088026E012A9F
:103D10000BD1EFF3108281F3108801680B68102437
:103D2000A3430B60059882F310882021039B9960C0
:103D30000022026682661A70D960384607B0F0BD6C
:103D4000029807B0F0BD08250D62EFF310810198CD
:103D500080F3108809225201059B1B681C6894435C
:103D60001C6081F31088EFF3108180F31088059AAE
:103D70001268936883439360059B81F31088196EE2
:103D800001290CD1EFF31081012282F310881A6807
:103D900013681024A3431360059B81F3108820212E
:103DA000039A91600021196699661170D56007B079
:103DB000F0BD000080B504480168890603D500897C
:103DC000C0B2FCF707FD80BD1C38014080B5044837
:103DD0000168890603D50089C0B2FCF7FBFC80BDF1
:103DE0001C4C004080B582B001AA1820D0701C2065
:103DF0009070082050700C201070642000908E4845
:103E00004E210423FDF7D0FC0120FDF747FB02B053
:103E100080BDC046F0B58BB03220FDF73FFB0AAA4B
:103E20000826D6700C2494703820049050703C20E2
:103E3000069010706425009502957F484E210991E7
:103E400004273B46FDF7B0FC0520FDF727FB0AAA37
:103E5000D67008949470049850700698107000956D
:103E60007548099D29463B46FDF79EFC01200790B9
:103E7000FDF714FB0AAAD67005969470049850704A
:103E800006981070029C00946B4829463B46FDF74B
:103E90008BFC0A252846FDF701FB0AAAD670089874
:103EA00090702820069050702C261670009462485E
:103EB00009993B460397FDF777FC2846FDF7EEFA94
:103EC0000AAA8825D5708C249470069850701670B4
:103ED000029E0096584809993B46FDF765FC079FEE
:103EE0003846FDF7DBFA0AAAD5709470059C547029
:103EF000089D1570009650480999039BFDF754FCE6
:103F00003846FDF7CBFA0AAA1820D0701C20907012
:103F10005470157000964848099D2946039F3B46FA
:103F2000FDF742FC079C2046FDF7B8FA2046FDF756
:103F3000B5FA0AAA6820D0706C209070059C547065
:103F40000898107000963C4829463B46FDF72CFC2B
:103F50000798FDF7A3FA0AAAC820D070CC20907069
:103F60005470089810700096334829463B46FDF778
:103F70001BFC0BB0F0BDC04680B582B0012804D058
:103F8000002804D18020014301E0C0200143080142
:103F90000346083301AAD3700C3090700F20814380
:103FA0000846083050700C3111706420009022488F
:103FB0004E210423FDF7F8FB02B080BD80B582B02E
:103FC00001010B46093301AAD3700D319170F02124
:103FD00001400846093050700D3111706420009086
:103FE00015484E210423FDF7DFFB02B080BDC0461B
:103FF000B0B582B0017800291BD0451C0E4C0801D9
:104000000346093301AAD3700D3090700F2081430D
:104010000846093050700D311170642000904E2117
:1040200004232046FDF7C0FB681C297800290546BB
:10403000E5D102B0B0BDC0469800002000B5A3B0E5
:10404000FDF7BAFC0EAC201D3021FCF769F8012009
:104050001690119032210E9113900026179610257C
:10406000149512952296219620961F961E961D96BF
:104070002046FDF7A5FE002803D0EFF3108072B6AE
:10408000FEE70D960C9603240B9407200A900AA8CD
:1040900001273946FDF7A0FD002803D0EFF310807B
:1040A00072B6FEE720961F961E9623201C901CA831
:1040B000FDF7EEFC002803D0EFF3108072B6FEE7A8
:1040C000049512961196F804E34A116801431160B1
:1040D000116801401C911C98B805116801431160DA
:1040E000116801401C911C9878041168014311600B
:1040F000116801401C911C98B804116801431160BB
:10410000116801401C911C98D448FC21079132464B
:10411000FDF7A7FA09200190C5062021284605953C
:1041200003913246FDF79DFACD48042109913246AC
:10413000FDF797FA3903089128463A46FDF791FAB8
:1041400010962120000406900F90780302900E90A4
:104150000EADC2482946FDF7B3F9119610960F9798
:1041600007980E90BD482946FDF7AAF911961096BA
:104170000F97089820300E9005982946FDF7A0F972
:10418000119610960F9709980E90B5482946FDF79D
:1041900097F90797109706980F90E0020E90AF4896
:1041A0002946FDF78DF90725284621463246FDF7B9
:1041B00053FC2846FDF744FCAA488025856163210D
:1041C0007D2294002246153AA74B03604260866028
:1041D000C16006611D961C96149613961296119650
:1041E000FEF72AFE002803D0EFF3108072B6FEE738
:1041F0009C481CA9FEF782F8002803D0EFF310803A
:1042000072B6FEE70694129610960F9660270E97E8
:1042100094480EA908242246FEF7CAFC002803D0C1
:10422000EFF3108072B6FEE78E480EA90C220592BD
:10423000FEF7BEFC002803D0EFF3108072B6FEE755
:1042400000978848FEF772FC4C2088490E54079F5F
:104250000F658E6406983338854A8A62CE620A46B4
:104260003032D0C2099ACA630E6448640C462834BE
:104270002046FDF739F8002803D0EFF3108072B61E
:10428000FEE7109708980F900A200E900EA920467E
:10429000FCF786FF002803D0EFF3108072B6FEE72C
:1042A0000B200E900EA92046FCF77AFF002803D0C1
:1042B000EFF3108072B6FEE76749086A099A9043E7
:1042C00008626B4A90680799084390601068C007BD
:1042D00008D11068C00705D11068C00702D1106866
:1042E000C007F3D063486449644A02604160866055
:1042F0000799C160066146618661C6610662FDF785
:10430000FFF9002803D0EFF3108072B6FEE759489A
:104310000021FDF7B3F9002803D0EFF3108072B647
:10432000FEE7544800263146FDF7C9F9002803D0BE
:10433000EFF3108072B6FEE7514808998163066278
:10434000049941624F494B221746D40152C006607E
:10435000466005998160C66006610C38FEF7FDFE77
:10436000002803D0EFF3108072B6FEE746480899A4
:104370008163066204994162444952C00660466006
:1043800005998160C66006610C38FEF7E6FE0028DC
:1043900003D0EFF3108072B6FEE73C4A1068039931
:1043A00008431060106A40210C46084310623848E8
:1043B00038497A0246C00660466005998160C66049
:1043C0000661466186610C38FEF7C7FE002803D0FF
:1043D000EFF3108072B6FEE72F48089981630662FA
:1043E000049941622D4FE1214902076041608660D6
:1043F000C6600661059941618661C661FEF7ADFE42
:10440000002803D0EFF3108072B6FEE738680399F6
:1044100008433860386A2043386221488561214A60
:104420002F21214C04600F4641608660C2600F96C8
:104430000E96FDF791FF002803D0EFF3108072B6BF
:10444000FEE717480EA9FDF759FF00282ED0EFF31D
:10445000108072B6FEE7C046141002400008004803
:1044600000040048C401002000040040180000209F
:1044700000240140980000200E0900200054004054
:10448000AC0300200048004034040020004C0040F1
:1044900024030020004400409C020020003801401A
:1044A0000C020020E703000000100040206807997C
:1044B00008432060E0680843E060E5488561E5491D
:1044C000E54C046041608660E449C1600F960E9639
:1044D000FDF742FF002803D0EFF3108072B6FEE72D
:1044E000DB480EA9FDF70AFF002803D0EFF3108088
:1044F00072B6FEE72068079908432060E068084329
:10450000E060D748D74C90C0066001994160866052
:10451000C66005610838FDF71FFF002803D0EFF3E0
:10452000108072B6FEE72068079908432060E068B3
:104530000843E060CC48CD49CD4A84C00660416064
:104540008660C66006611D961C960838FEF72EF937
:10455000002803D0EFF3108072B6FEE7C2481CA912
:10456000FDF7CCFE002803D0EFF3108072B6FEE713
:104570001196109607980F900E96BB480EA93246DA
:10458000FEF74CF8002803D0EFF3108072B6FEE778
:10459000B5480EA90C22FEF741F8002803D0EFF32E
:1045A000108072B6FEE7B348B349AC4B1A46283ABE
:1045B00046C0036046608660C5600B960A961496F6
:1045C0000C38FEF739FC002803D0EFF3108072B6E8
:1045D000FEE7F2480AA9FDF791FE002803D0EFF3A9
:1045E000108072B6FEE71D9600981C901E961F96CE
:1045F000209621962296E9481CA93246FEF7D8FA61
:10460000002803D0EFF3108072B6FEE712961196E1
:1046100010960F960E96159602981390DF480EA9E5
:10462000FDF73EFE002803D0EFF3108072B6FEE7E0
:10463000DA48FEF77BFA0A20FCF750FAFCF7D0FACA
:10464000FCF7A6FCFFF7E6FB002405212046FFF758
:1046500093FCD3A0FFF7CCFC012008942146FFF780
:104660008BFCD1A0FFF7C4FCAF2004012046FCF76F
:10467000D9FCD14D2846FFF7BBFC2046FCF7D2FC05
:104680002846FFF7B5FC2046FCF7CCFC2846FFF790
:10469000AFFC2046FCF7C6FC2846FFF7A9FC2046E5
:1046A000FCF7C0FCFFF79EFBFCF760FDFCF76AFD22
:1046B00046E0FCF76DFCFCF779FBB64EF070FCF7BA
:1046C00099FB7071FCF796FBB071FCF793FBF071EE
:1046D000FCF790FB3072FCF78DFB7081307AF1793A
:1046E00009020D18B581B079717909020818F081B5
:1046F00080B2FBF701FE00242246BD4F3B46FBF78C
:1047000083FDFBF73FFE7061A8B2FBF7F5FD224683
:104710003B46FBF779FDFBF735FE3061FCF7C4FC47
:104720007069FCF79DFC02212046FFF725FCB1A033
:10473000FFF75EFC06986430FCF774FCFFF752FB51
:104740009448406A002803D19C4800780328B0D0E0
:104750009048406A042804D098480078002800D186
:104760008CE08C48406A04281BD0944800780128CB
:1047700017D18848807800280BD0C8242046FCF741
:1047800051FCFFF72FFB2046FCF74CFC81480899B1
:10479000817000200421FFF7EFFB8CA0FFF728FCBD
:1047A000CEE77C48406A042817D084480078022865
:1047B00013D178488078002807D0C820FCF732FC55
:1047C000FFF710FB73480899817000200221FFF762
:1047D000D3FB80A0FFF70CFCB2E76E48406A0428C8
:1047E000AED1069C2046FCF71DFC00250221099154
:1047F0002846FFF7C1FB7AA0FFF7FAFB2046FCF73B
:1048000011FCFFF7EFFA64482946FEF779F8042611
:104810005E4F384631462A46FCF723FF05242046E2
:10482000FCF7E2FB012238463146FCF71AFF20462E
:10483000FCF7DAFB384631462A46FCF712FF5648A9
:104840000068C168099A1143C160FEF7AFFF77E7BE
:1048500054020020BF12000000140040E7030000D3
:104860007C01002000440140EC000020FEFF00001D
:10487000002C014034010020004001404548807870
:1048800000280BD0C8242046FCF7CCFBFFF7AAFA7F
:104890002046FCF7C7FB3F4808998170002004219F
:1048A000FFF76AFB46A0FFF7A3FB3A48406A0028DF
:1048B00000D145E70C213848FEF722F804240026F1
:1048C000334F384621463246FCF7CBFE05252846B5
:1048D000FCF78AFB0122384621460792FCF7C1FE0D
:1048E0002846FCF781FB384621463246FCF7B9FEE4
:1048F00029480068C168049A1143C16032480078B1
:104900000E2800D91CE7002424482146FEF736FB78
:104910004B20FEF745FF09942046FCF797F81D4809
:104920000799017000F06CF81A4809994170042544
:104930000026174F384629463246FCF792FE0524DA
:104940002046FCF751FB012238462946FCF789FE38
:104950002046FCF749FB384629463246FCF781FEE3
:104960000C494878401C48700B490968CA68049B88
:104970001A43CA60C0B21E28D9D30648007800285E
:10498000D0D100210548FEF76FFBD9E600080048AA
:104990000004004818000020EC0000203401002032
:1049A00053595354454D0000494E495449414C49CF
:1049B0005A494E4700000000345500080800002006
:1049C0004F41206D6F646500090000205443206D45
:1049D0006F6465004E6F726D616C206D6F64650071
:1049E0005061726B696E67206D6F64650000000036
:1049F00000002440436172207374616E6462790028
:104A0000F0B583B05E4C2078032817D0022805D07B
:104A1000012800D0B2E05D48232105E05948007824
:104A2000594908705948692101607D20C000FCF790
:104A300035FD2078401C207003B0F0BD514E307819
:104A4000514D687051484B2101607D27F800FCF7FB
:104A500025FD4F4800210170012222706420307032
:104A6000BC00687829784B4B4B4E8142029230D97A
:104A70003C2018605860F020C54330682840306002
:104A800030686021014331604449042008602046B9
:104A900001941C46FCF702FD462727603068284039
:104AA0003060306810210143316002203B490860CA
:104AB0000198FCF7F3FC276067603068284030609D
:104AC000306890210143316034480299016003B09D
:104AD000F0BD3C221A605A603268F025AA43326069
:104AE00032686023134333602C4B04221A608142E6
:104AF00022D22046FCF7D2FC462726484760ED43E9
:104B000030682840306030688021014331600320E4
:104B1000224908602046FCF7C1FC1E480760476038
:104B2000306828403060306890210143316002983D
:104B30001A49086003B0F0BD2046C830FCF7AEFC4F
:104B4000462714480760ED433068284030603068DD
:104B50001021014331600220104908602046FCF713
:104B60009DFC0C4807604760306828403060306822
:104B700090210143316002980849086003B0F0BDFC
:104B800010000020090000208C000020344001406B
:104B9000180000203C040040140800483C0000209D
:104BA0000FB410B504A9074B02AA039800F0ECF863
:104BB000044602A9002000F083FC204610BC08BC7B
:104BC00004B01847C15400082021020C01D0102164
:104BD0001046020A01D010460839020901D01046D9
:104BE000091F820801D01046891E420801D0881E84
:104BF0007047081A704702E008C8121F08C1002A4F
:104C0000FAD170477047002001E001C1121F002A4D
:104C1000FBD17047F0B51FB486B00998089A030D10
:104C20000021024314D05148514A1818504305142A
:104C30001198012810981AD0281A401C00264D4FB0
:104C40004D49009601910490002812DA444211E087
:104C50001198012449A3012801D11098C143069855
:104C6000119A84600360C26041600BB0F0BD4042A5
:104C7000E4E70446210500203F4A001C514103910E
:104C8000029012E0E00707D032463B4601990098B7
:104C9000FBF752FA0191009032463B461046194606
:104CA000FBF74AFA06460F466410002CEAD1049836
:104CB000039B0028029A0999089806DAFBF73CFA48
:104CC000019B009AFBF738FA05E0FBF79DFA019B80
:104CD000009AFBF799FA04460E460022284BFBF790
:104CE0002FFD03D80020C043014607E00022254BDA
:104CF00020463146FBF752FCFBF702FD102409E089
:104D0000002C0ADB0A220023FBF777FB079B3032DB
:104D10001A55641E02460A43F2D11122641C079BF5
:104D2000121B1C19119B012B03D0012308430ED128
:104D30000AE0084304D0112010900020119077E77A
:104D40001098151A6D1E0BE01098824202DD0023A8
:104D50006D1C03E0824201DA00236D1E002BEED0B1
:104D6000069811998260C16030C07EE701FCFFFFA8
:104D7000104D0000000014400000F03F3000000023
:104D80000000F0430000E03FFFB597B00646002565
:104D900018E2252877D100242746FD49049400E035
:104DA0000443761C32780120203A90400842F7D123
:104DB00030782A280ED0022230780146303909296D
:104DC00016D804990A235943303940181443761CE5
:104DD0000490F1E7189802C804911890002904DAA9
:104DE0000120400304434842049002200443761CFF
:104DF00030782E2814D1042004437078761C2A2899
:104E000009D11898761C80C8189009E00A214F43F0
:104E1000303FC719761C3078014630390929F5D959
:104E200030786C2810D006DC4C281AD068280ED0B8
:104E30006A2817D104E0742813D07A2812D110E020
:104E40000120400504430CE00121090501E0032194
:104E500009050C437178814203D101200005241813
:104E6000761C761C3078119066280BD013DC5828FD
:104E70007DD009DC00287BD04528F6D04628F4D028
:104E800047281AD1A5E118E0632835D0642870D0EE
:104E9000652812D19DE170286CD008DC6728F1D01C
:104EA00069287BD06E280DD06F2806D1BAE0732810
:104EB0002ED0752871D0782859D01A9A1999904710
:104EC0006D1C7EE16002400F022809D003280DD03E
:104ED0000428189801680DD00D60001D189070E12D
:104EE0001898EA1701680D604A60F6E7189801689B
:104EF0000D80F2E70D70F0E718986A46017811729C
:104F0000001D18900020507202A80090012005E0BA
:104F1000189802C8189000200091C04361070DD571
:104F2000002101E00199491C0191B94212DA814244
:104F3000F8DB009A515C0029F4D10BE0002101E07C
:104F40000199491C01918142FADB019A0099895C1F
:104F50000029F5D1019904981A9B471A2146384631
:104F6000199A00F097FA0199401945180BE04FE0A3
:104F70002CE113E04EE0009800990078491C009164
:104F80001A9A199990470198401E0190401CF2D13D
:104F9000214638461A9B199A10E137E00A20002171
:104FA000009001916002410F022907D0189A01CAAE
:104FB0001892C2179446032908D00AE01898C01D19
:104FC000C108C90005C91891944607E000B2C2178C
:104FD0009446042902D140B2C1178C460022614692
:104FE000944506DA0A460021404291418C462D2123
:104FF00002E0210504D52B216A461173012103E04B
:10500000E10701D02021F7E7029155E00A200AE0EC
:10501000102008E01020009000210420044301919A
:10502000082703E008200021019100906002410F51
:10503000022907D0189A01CA18920022944603291F
:1050400008D008E01898C01DC108C90005C918910A
:10505000944603E080B2042900D1C0B2002102913D
:10506000210729D51199702906D0009A1021019B9A
:105070004A401A4305D00EE040216A4611730121CF
:1050800008E06146014306D030216A461173119948
:10509000517302210291009A0821019B4A401A4350
:1050A0000AD16146014301D1610705D530216A4625
:1050B000117301217F1E02911199582904D035A145
:1050C0000E910DA90D910DE037A1F9E76146019B05
:1050D000009AFBF792F90E9B8C469B5C0D9A521E30
:1050E0000D92137061460143F0D10D9805A9081A7D
:1050F00020300190600703D501200004844300E0C4
:1051000001270198874201DD381A00E0002001994B
:1051100000904118029809180498401A0490E0037E
:1051200006D421461A9B199A049800F0B3F9451940
:10513000002706E003A81A9AC05D199990476D1CD4
:105140007F1C02988742F5DBE0030CD521461A9BB1
:10515000199A049800F09EF9451904E01A9A302033
:10516000199990476D1C0099481E00900029F5DCA4
:1051700008E00D980D990078491C0D911A9A19991B
:1051800090476D1C0199481E01900029F1DC63E1F4
:10519000092801003031323334353637383961620D
:1051A00063646566000000003031323334353637D1
:1051B00038394142434445460000000000F05AF9A6
:1051C0004519761C3078002800D0E2E528461BB04F
:1051D000F0BD600700D406271898C01DC108C9009B
:1051E00048680A680831C30FDB071891190001D01D
:1051F0009CA108E0210501D59BA104E0E10701D0B5
:105200009AA100E09AA1430011985B0810916528CB
:105210000CD006DC452809D046281DD0472841D1AE
:1052200041E0662818D067283CD13CE00021112FCE
:1052300001DB112000E0781C0191009008A911A861
:10524000FFF7E8FC139905910021119A15927F1C34
:1052500012980197009150E00120C00703900120AF
:10526000019008A9009711A8FFF7D4FC139A14998C
:1052700005920022119B009212981593059A0192B3
:10528000002901D0104602E0791C40180190381A1C
:1052900001D5019804E04042401E0090781C019026
:1052A000C01B029043E0012F00DA01270021112FDB
:1052B00001DD112000E038460191009008A911A8F5
:1052C000FFF7A8FC13990591119A002112981592E5
:1052D0000091019721070CD40599B94201DB01998E
:1052E00000E00191012904DD159A491E515C302925
:1052F00006D0B84201DA011D05DA0121029115E05C
:105300000199491EEDE7002805DC0099411800913C
:105310000199091A03E0019A411C914200DD0191B3
:105320000099401A401C02900120C00703902007FA
:1053300006D402990198814202DB0020C04302900A
:1053400000206946C87707AF012103980337C907D2
:10535000884224D0022011902B201290039800281C
:105360000CDA404203902D20129007E00A210398A6
:10537000FBF724F830317F1E039039701199481ED5
:1053800011900029F2DC03980028EFD1791E1298C1
:1053900008703078202108404530BF1E387006A8BC
:1053A000C01BC01D039010980078002800D0012079
:1053B000019941180298C017091803980918049810
:1053C000401A401E0490E00306D421461A9B199A05
:1053D000049800F05FF8451910980078002803D071
:1053E0001A9A199990476D1CE00324D521461A9BFF
:1053F000199A049800F04EF845191CE0009800280E
:1054000007DB00990598884203DD1598405C1999DF
:1054100001E0199930201A9A904700986D1C401CA1
:1054200000900298401E0290002804D11A9A2E2063
:10543000199990476D1C0199481E01900029DDDCE7
:1054400005E038781A9A7F1C199990476D1C0399CA
:10545000481E03900029F4DC21461A9B199A0498EF
:10546000ACE600002D0000002B0000002000000032
:1054700000000000F8B5044600251E4617468804C3
:1054800004D405E039462020B0476D1C641EF9D5D0
:105490002846F8BDFFB50446002581B01E46C80366
:1054A00001D5302700E02027880404D505E03846E0
:1054B0000399B0476D1C641EF9D5284605B0F0BDB0
:1054C0000A68531C0B601070704700000000000059
:1054D00000000102030406070809000000000102A1
:1054E000030402030405060708090A0B0C0D0E0F3E
:1054F00010100102030405060708090A0B0C0D0E23
:105500000F1000000200000004000000080000006E
:1055100010000000FDFFFFFFFBFFFFFFF7FFFFFF95
:10552000EFFFFFFF00000000040000000800000083
:10553000020000003E000000585500080000002056
:1055400018000000F64B00087055000818000020F5
:10555000A8080000064C000801000000040000003C
:105560000364000000127A00010000000000000047
:04000005080000C12E
:00000001FF
